:1000000072C000008FC000008DC000008BC00000D7
:1000100089C0000087C0000085C0000083C00000C8
:100020000C94231A7FC000007DC000007BC000003C
:1000300079C0000077C0000075C0000073C00000E8
:1000400071C000006FC000006DC000006BC00000F8
:1000500069C0000067C0000065C0000063C0000008
:1000600061C000005FC000005DC000005BC0000018
:1000700059C0000057C0000055C0000053C0000028
:1000800051C000004FC000004DC00000080000003B
:10009000BE922449123EABAAAA2ABECDCCCC4C3E7D
:1000A00000000080BEABAAAAAA3E00000000BF006C
:1000B0000000803F0000000000084178D3BB438768
:1000C000D1133D190E3CC3BD4282AD2B3E68EC827C
:1000D00076BED98FE1A93E4C80EFFFBE01C4FF7F01
:1000E0003F000000000011241FBECFEFD0E4DEBFB0
:1000F000CDBF11E0A0E0B1E0EAEEFCE300E00BBF11
:1001000002C007900D92A039B107D9F723E0A0E90A
:10011000B1E001C01D92A434B207E1F70E944D1A6C
:100120000C94731E6DCFE0ECF0E0908195FFFDCF55
:100130008093C60080E090E00895019624EA31E0C3
:10014000829FB001839F700D929F700D1124CB018F
:1001500001978130904158F4645A714044EA51E06B
:1001600085E991E00E94521E80E090E0089581E0D0
:1001700090E00895019624EA31E0829FB001839FC8
:10018000700D929F700D1124CB0101978130904129
:1001900058F4645A714044EA51E085E991E00E94C4
:1001A000421E80E090E0089581E090E00895E0EC48
:1001B000F0E0908195FFFDCFE5E9F1E044855585BC
:1001C00066857785762F652F542F4427482B4487E3
:1001D0005587668777878093C60080E090E0089512
:1001E0008091C000881F8827881F08958F929F9252
:1001F000AF92BF92CF92DF92EF92FF92CF93DF93B5
:10020000EC014A015B018091C00088233CF1A8EE1B
:10021000B3E09A01AB010E94151EAB01BC01411570
:1002200051056105710509F448C0C12CD12C760136
:1002300082E0E0ECF0E0982F9A95F1F79FEFC91A71
:10024000D90AE90AF90A908199235CF0C416D50607
:10025000E606F70681F785E190E03DC0C12CD12C80
:100260007601A8EEB3E0A50194010E94151E6C155D
:100270007D058E059F0521F18091C00084FD23C07E
:100280008091C00083FD22C08091C00082FD21C00A
:100290002091C6002883E5E9F1E080899189A2894F
:1002A000B389BA2FA92F982F8827822B808B918B07
:1002B000A28BB38B80E090E00EC085E190E00BC094
:1002C00085E190E008C086E190E005C087E190E01C
:1002D00002C088E190E0DF91CF91FF90EF90DF9036
:1002E000CF90BF90AF909F908F9008958091C00065
:1002F000882344F4A6ECB0E0E0ECF0E08C9180813F
:100300008823E4F308952EE031E0309341032093F5
:10031000400360939D0170939E0180939F01909391
:10032000A001DC01CB01880F991FAA1FBB1F880FFA
:10033000991FAA1FBB1F9C01AD01220F331F441F31
:10034000551F220F331F441F551F60E072E18AE7DB
:1003500090E00E94D71D215031093093C5002093B1
:10036000C40088E18093C1008EE08093C200BEDFAC
:1003700080E090E00895E8ECF0E0908195FFFDCFFB
:10038000E5E9F1E0408D518D628D738D762F652FFB
:10039000542F4427482B408F518F628F738F809347
:1003A000CE0080E090E008958091C800881F8827E3
:1003B000881F08958F929F92AF92BF92CF92DF9243
:1003C000EF92FF92CF93DF93EC014A015B018091A2
:1003D000C80088233CF1A8EEB3E09A01AB010E946B
:1003E000151EAB01BC01411551056105710509F4EC
:1003F00048C0C12CD12C760182E0E8ECF0E0982FC7
:100400009A95F1F79FEFC91AD90AE90AF90A90817A
:1004100099235CF0C416D506E606F70681F78FE14E
:1004200090E03DC0C12CD12C7601A8EEB3E0A5012F
:1004300094010E94151E6C157D058E059F0521F106
:100440008091C80084FD23C08091C80083FD22C034
:100450008091C80082FD21C02091CE002883E5E96B
:10046000F1E0848D958DA68DB78DBA2FA92F982F89
:100470008827822B848F958FA68FB78F80E090E09E
:100480000EC08FE190E00BC08FE190E008C080E2E9
:1004900090E005C081E290E002C082E290E0DF914E
:1004A000CF91FF90EF90DF90CF90BF90AF909F9053
:1004B0008F9008958091C800882344F4AEECB0E09A
:1004C000E8ECF0E08C9180818823E4F30895609358
:1004D000A9017093AA018093AB019093AC01DC0158
:1004E000CB01880F991FAA1FBB1F880F991FAA1F36
:1004F000BB1F9C01AD01220F331F441F551F220F4C
:10050000331F441F551F60E072E18AE790E00E94AC
:10051000D71D215031093093CD002093CC0088E1C4
:100520008093C9008EE08093CA00C4DF80E090E031
:1005300008959B01AC0184B1806A84B9249A559ACC
:10054000549A2093B5013093B6014093B70150936C
:10055000B80160E072E18AE790E00E94D71DCA010D
:10056000B9010E94961B0E94A41C28E132E741E3D6
:100570005FE30E94FD1A0E94E61A0E94651B61302B
:10058000710551F48DB581608DBD8CB58D7F8CBDAD
:100590008CB58E7F8CBD4DC06230710551F48DB528
:1005A0008E7F8DBD8CB58D7F8CBD8CB58E7F8CBDC7
:1005B00040C06330710551F48DB581608DBD8CB53F
:1005C0008D7F8CBD8CB581608CBD33C0643071056E
:1005D00051F48DB58E7F8DBD8CB58D7F8CBD8CB566
:1005E00081608CBD26C06530710551F48DB5816088
:1005F0008DBD8CB582608CBD8CB58E7F8CBD19C0D5
:100600006630710551F48DB58E7F8DBD8CB58260DD
:100610008CBD8CB58E7F8CBD0CC06730710589F4A4
:100620008DB58E7F8DBD8CB582608CBD8CB58160A3
:100630008CBD80E58CBD2C9A5D9A5C9A80E090E040
:10064000089589E290E00895CF93DF93009729F40D
:100650008CB58B7F8CBD2C980EC08130910529F410
:100660008CB584608CBD5D9806C0029721F48CB572
:1006700084608CBD5C9814161506DCF4FB01460FF3
:10068000571FC5E9D1E020818CA19DA1AEA1BFA1DA
:10069000BA2FA92F982F8827822B8CA39DA3AEA3B6
:1006A000BFA381918EBD0DB407FEFDCFE417F50702
:1006B00051F72C9A5D9A5C9A80E090E0DF91CF919F
:1006C00008959B01AC016093BD017093BE018093BE
:1006D000BF019093C00160E072E18AE790E00E9460
:1006E000D71DDA01C9014097A109B109B695A795AF
:1006F000979587958F3F910509F088F48093B8000E
:1007000082E090E0A0E0B0E08093C1019093C2014C
:10071000A093C301B093C40180E090E0089583E307
:1007200090E008952F923F924F925F926F927F9246
:100730008F929F92AF92BF92CF92DF92EF92FF92F1
:100740000F931F93CF93DF9300D000D01F92CDB7AC
:10075000DEB74115510509F4C3C08E7F21E030E0BA
:1007600090E01982ECEBF0E00F2EF4EADF2EF02D92
:100770000F2EF9EBEF2EF12CF02D482E512C612C81
:10078000712C0F2EF4E8CF2EF02D6A837B831B0192
:10079000240E351E3D832C8310C094E3198207C0BC
:1007A00098E3198204C07D836C839BE319822C81BA
:1007B0003D812F5F3F4F3D832C838090C1019090FE
:1007C000C201A090C301B090C4016C817D818B01F6
:1007D000770F220B330B80169106A206B3060CF49A
:1007E00079C0D082AC81BD8120812223ECF7BD830A
:1007F000AC83D7012C91287F203129F0283369F26E
:10080000283009F070C04092C9015092CA0160922C
:10081000CB017092CC01ABEBB0E08C93C082AC8189
:10082000BD8120812223ECF7BD83AC83D7012C91BD
:10083000287F203209F4B4CF283321F0283109F081
:1008400044C003C099E31982B2CF141615060CF008
:1008500041C06A817B819B016C817D814901D4010A
:10086000BC900091CD011091CE012091CF0130912B
:10087000D001322F212F102F00270B290093CD01FB
:100880001093CE012093CF013093D0012D914D01D3
:10089000ABEBB0E02C93C082D40120812223ECF793
:1008A0004D01D7012C91287F203309F47CCF2833C8
:1008B00019F0283269F405C07D836C839CE31982AA
:1008C00076CF8214930459F605C09AE3198202C0C8
:1008D0009DE3198284E98093BC00892F998105C02A
:1008E00080E090E002C085E390E00F900F900F90C1
:1008F0000F900F90DF91CF911F910F91FF90EF908C
:10090000DF90CF90BF90AF909F908F907F906F902F
:100910005F904F903F902F9008952F923F924F926B
:100920005F926F927F928F929F92AF92BF92CF927F
:10093000DF92EF92FF920F931F93CF93DF93CDB788
:10094000DEB727970FB6F894DEBF0FBECDBF582E87
:100950007A8369833A013F832E831D830C8301E0F0
:1009600010E020E030E00F2EF5E9EF2EF1E0FF2E51
:10097000F02D0F2EF4EA4F2EF02D0F2EF9EBCF2E87
:10098000D12CF02D882E912CA12CB12C81608B8341
:100990000F2EFBEB2F2E312CF02D07C026E330E07D
:1009A00002C028E330E00F5F1F4FD7019C964D91A6
:1009B0005D916D917C919F97C801012E000CAA0B4F
:1009C000BB0B481759076A077B070CF4A7C0A301A4
:1009D00069817A81852DA6DE9C01009709F0A4C06B
:1009E000ECEBF0E04082ACEBB0E08C918823DCF7DC
:1009F000F6018081887F803129F0883379F2883050
:100A000009F094C0D701D4968D929D92AD92BC927C
:100A1000D7978B81F1018083E4E8ACEBB0E0EC93F5
:100A2000ACEBB0E08C918823DCF7F6018081887F05
:100A3000803449F0883409F4B4CF883309F469C0AC
:100A40002AE330E06BC08C819D81181619060CF0EA
:100A500065C040E050E0BC0161507109ECEBF0E092
:100A600094EC0F2EF4E8BF2EF02D0F2EF9EB8F2E05
:100A7000912CF02D0BEB10E00F2EF5E96F2EF1E02D
:100A80007F2EF02D6417750711F4B08201C090839A
:100A900080818823ECF7D4018C91887F803519F010
:100AA000883511F139C0D8018C91AE81BF818D9309
:100AB000BF83AE83D301DC96CD90DD90ED90FC90AA
:100AC000DF97FE2CED2CDC2CCC24C82ADC96CD92B2
:100AD000DD92ED92FC92DF974F5F5F4FAC81BD815D
:100AE0004A175B0779F61AC04091BB00EE81FF817F
:100AF0004083E5E9F1E084AD95ADA6ADB7ADBA2F81
:100B0000A92F982F8827842B84AF95AFA6AFB7AFB6
:100B100005C029E330E002C02EE330E084E9809391
:100B2000BC00822F932F04C0932F02C087E390E074
:100B300027960FB6F894DEBF0FBECDBFDF91CF91E1
:100B40001F910F91FF90EF90DF90CF90BF90AF90EB
:100B50009F908F907F906F905F904F903F902F90DD
:100B600008956093D5017093D6018093D701909337
:100B7000D801683823E172078105910568F1613475
:100B80002DE0720723E08207910548F59B01AC0137
:100B900010927C0060E072E18AE790E00E94D71D2D
:100BA000CA01B9010E94961B0E94A41C28E132E7E9
:100BB00041E35FE30E94FD1A0E94E61A0E94651B52
:100BC0006830710578F4606860937A008FE38093F1
:100BD0007E0080E090E0089587E490E0089588E446
:100BE00090E0089589E490E008950F931F93ECE757
:100BF000F0E09081982B9083EAE7F0E09081906498
:100C00009083908194FDFDCF4091780050E0FB01EE
:100C10005183408390917900592B51834083E9EDB2
:100C2000F1E0052E000C660B770B0081118122810B
:100C30003381980111270027402B512B622B732BF6
:100C40004083518362837383ECE7F0E09081809569
:100C50008923808380E090E01F910F910895109286
:100C6000DD011092DE011092DF011092E00110927E
:100C7000E5011092E6011092E7011092E80110924E
:100C8000E1011092E2011092E3011092E40110924E
:100C9000E9011092EA011092EB011092EC016093CD
:100CA000ED017093EE018093EF019093F00180E0ED
:100CB00090E0089595DA811106C076DB811106C0B7
:100CC00080E090E0089581E090E0089582E090E077
:100CD00008954F925F926F927F928F929F92AF9200
:100CE000BF92CF92DF92EF92FF920F931F93CF9319
:100CF000DF931F92CDB7DEB74C012801390181E0A7
:100D000088169104E1F414161506BCF47B015B010E
:100D1000A40EB51EB301A201CE01019667DA6C01E3
:100D2000892B21F0E3DA8C2D9D2D3FC08981F701BD
:100D300081937F01EA15FB0569F7D8DA1FC0F2E05D
:100D40008F16910481F514161506BCF47B015B0126
:100D5000A40EB51EB301A201CE0101962BDB6C01DE
:100D6000892B21F0A7DB8C2D9D2D1FC08981F701D8
:100D700081937F01EA15FB0569F79CDBF401EE0F17
:100D8000FF1FEE0FFF1FE752FE4F80819181A2816E
:100D9000B3810196A11DB11D80839183A283B3838A
:100DA00080E090E002C085E690E00F90DF91CF9167
:100DB0001F910F91FF90EF90DF90CF90BF90AF9079
:100DC0009F908F907F906F905F904F9008950F93BA
:100DD0001F930091ED011091EE012091EF013091F0
:100DE000F00145E050E060E971E073DF1F910F9181
:100DF0000895EF92FF920F931F93CF93DF93EC012F
:100E0000E9E3F3E0608351834283338324838130B9
:100E1000910559F434C0F80181918F01C8D9009728
:100E2000B9F50E151F05B9F713C0029729F509E3A7
:100E300013E00F2EFEE3EF2EF3E0FF2EF02DF8016E
:100E400081918F0198DA009719F50E151F05B9F7F2
:100E5000CC0FDD1FCC0FDD1FC752DE4F888199817B
:100E6000AA81BB810196A11DB11D88839983AA83A4
:100E7000BB8380E090E00CC086E690E009C009E307
:100E800013E00F2EFEE3EF2EF3E0FF2EF02DC3CF85
:100E9000DF91CF911F910F91FF90EF9008958FE117
:100EA00090E0A0E0B0E08093F9019093FA01A09364
:100EB000FB01B093FC0181E591E0A0E0B0E08093FC
:100EC000FD019093FE01A093FF01B09300028FEF0C
:100ED0009FE1A0E0B0E08093010290930202A09312
:100EE0000302B093040284B1876084B985B1887F1E
:100EF00085B9289829982A98449A459A469A87B19C
:100F0000806787B988B18F7888B981B18F7381B9CB
:100F1000569880E090E00895289A449881112A9A82
:100F200080E090E008952898449A2A9880E090E024
:100F300008950F931F93CF93DF9300D0CDB7DEB703
:100F40008C0119838A8342E050E0BE016F5F7F4FBE
:100F500081E090E079DB009759F4A80160E070E04F
:100F60004093F1015093F2016093F3017093F40107
:100F70000F900F90DF91CF911F910F9108958F9255
:100F80009F92AF92BF92CF92DF92EF92FF928091A9
:100F9000010290910202CDDF009709F04CC06091F0
:100FA000890270918A0280918B0290918C020E943A
:100FB000981B4B015C0120E030E04AEF54E40E94B2
:100FC000E41C6B017C0120E030E040E85FE30E941C
:100FD000F91A88232CF120E03FEF4FE757E4C701CF
:100FE000B6010E949B1C1816B4F420E030E040E2E9
:100FF00051E4C501B4010E94E41C0E946A1B611502
:10100000710599F028EC30E0C9010197F1F76150C2
:101010007109D1F70AC0C701B6010E946A1B02C05C
:1010200061E070E0CB010197F1F72898469A459A64
:10103000299880E090E0FF90EF90DF90CF90BF90F4
:10104000AF909F908F9008950F931F93CF93DF934E
:1010500000D0CDB7DEB78C0119838A8342E050E01F
:10106000BE016F5F7F4F82E090E0EEDA009759F4A7
:10107000A80160E070E04093F5015093F6016093A1
:10108000F7017093F8010F900F90DF91CF911F91AE
:101090000F910895299A80E197E24BDF009741F480
:1010A0008FEF9FE3D1DF009719F4289A469845986F
:1010B00008950F931F93CF93DF93EC018B0195DD80
:1010C000009789F4CC0FDD1FCC0FDD1FCB5FDD4F08
:1010D000F80140815181052E000C660B770B488387
:1010E00059836A837B83DF91CF911F910F9108957C
:1010F0008130910529F489B186FB882780F908950C
:101100008230910529F480B186FB882780F9089503
:10111000039729F480B1881F8827881F089581E0EC
:101120000895239A2B983F9880E090E0089586B127
:10113000881F8827881F08958F929F92AF92BF9231
:10114000CF92DF92EF92FF92CF939B01AC012B9A4B
:10115000A8EEB3E00E94151E4B015C01C12CD12CFE
:101160007601C2E008C08C2F8A95F1F78FEFC81A7C
:10117000D80AE80AF80ADBDF882341F0C814D9044A
:10118000EA04FB0481F781EA90E00AC08C149D0414
:10119000AE04BF0419F080E090E002C081EA90E064
:1011A000CF91FF90EF90DF90CF90BF90AF909F9046
:1011B0008F900895CF93DF93CDB7DEB765970FB6C5
:1011C000F894DEBF0FBECDBF80E48B8B8AE08C8BA2
:1011D0001D8A43E050E0BE016D5E7F4F80E090E0ED
:1011E00033DA9C01009709F05AC080E4888B198A91
:1011F0001A8A43E050E0BE01605F7F4F80E090E0DC
:1012000023DA009709F04CC080E48D8781E08E8757
:101210001F8643E050E0BE01635F7F4F80E090E0B7
:1012200013DA009709F03CC080E48A878CE08B8752
:101230001C8643E050E0BE01665F7F4F80E090E097
:1012400003DA009769F580E48F838DE0888719863B
:1012500043E050E0BE01695F7F4F80E090E0F4D949
:101260000097F1F480E48C8382E18D831E8243E059
:1012700050E0BE016C5F7F4F80E090E0E5D90097C1
:1012800079F480E4898383E18A831B8243E050E020
:10129000BE016F5F7F4F80E090E0D6D901C0932FF1
:1012A00065960FB6F894DEBF0FBECDBFDF91CF912C
:1012B00008952F923F924F925F926F927F928F92FA
:1012C0009F92AF92BF92CF92DF92EF92FF920F93D5
:1012D0001F93CF93DF93CDB7DEB768970FB6F8941F
:1012E000DEBF0FBECDBF3C016B01161617060CF01A
:1012F00081C000E010E06894222426F8FC01EE0F83
:10130000FF1FE657FE4F30807C01EE0CFF1CEE0CF9
:10131000FF1CF701EE0FFF1FEE58FE4FAA24A39407
:10132000B12C4501008002C0880C991C0A94E2F798
:101330000F2EFCE84F2EF2E05F2EF02DC701880F34
:10134000991F9C012C583E4F79012E8A3F8A888E26
:1013500043E050E0BE016A5E7F4F80E090E074D9C8
:10136000009709F0CCC0C2010197F1F72B8A3C8AA3
:101370001D8A43E050E0BE016D5E7F4F80E090E04B
:1013800063D9009709F0BBC08AE18A95F1F7288AF2
:10139000398AC501F701008002C0880F991F0A949D
:1013A000E2F78A8B43E050E0BE01605F7F4F80E050
:1013B00090E04AD9009709F0A2C088EA8A95F1F72F
:1013C0002D863E861F8643E050E0BE01635F7F4F5F
:1013D00080E090E039D9009709F091C0EEE3F3E1A5
:1013E0003197F1F70F5F1F4F0C151D0509F0ADCFB9
:1013F000860185C077230CF07EC000E010E0689481
:10140000442446F8FC01EE0FFF1FE657FE4F5080C4
:101410004C01880C991C880C991CF401EE0FFF1FDD
:10142000EA58FE4FEE24E394F12C5701008002C0ED
:10143000AA0CBB1C0A94E2F70F2EF8EA3F2EF02DFF
:10144000C401880F991F9C0128583E4F49014A86C4
:101450005B86AC8643E050E0BE01665F7F4F80E074
:1014600090E0F2D8009709F04AC0832D8A95F1F7F1
:101470004F825886198643E050E0BE01695F7F4F76
:1014800080E090E0E1D8009709F039C0832D8A957B
:10149000F1F74C825D82C701F401008002C0880F21
:1014A000991F0A94E2F78E8343E050E0BE016C5F1F
:1014B0007F4F80E090E0C8D8009709F586ED92E074
:1014C0000197F1F749825A821B8243E050E0BE0146
:1014D0006F5F7F4F80E090E0B7D8009781F4E6E738
:1014E000F2E13197F1F7015011090C151D0509F0D2
:1014F000AECF860104C000E010E080E090E0F30190
:10150000EE0FFF1FEE0FFF1FE75DFD4FA801110F4C
:10151000660B770B0081118122813381040F151F27
:10152000261F371F008311832283338368960FB6EB
:10153000F894DEBF0FBECDBFDF91CF911F910F9109
:10154000FF90EF90DF90CF90BF90AF909F908F90E3
:101550007F906F905F904F903F902F9008950097ED
:1015600009F054C086B1982F9470282F28708C7081
:101570008C3091F482E090E0A0E0B0E080931D0216
:1015800090931E02A0931F02B0932002FB0191834F
:10159000808380E090E008959923A1F0211126C076
:1015A00081E090E0A0E0B0E080931D0290931E02E5
:1015B000A0931F02B0932002FB019183808380E0FF
:1015C00090E00895222391F083E090E0A0E0B0E065
:1015D00080931D0290931E02A0931F02B0932002DD
:1015E000FB019183808380E090E008958111B4C075
:1015F00010921D0210921E0210921F0210922002E1
:10160000FB011182108280E090E008958130910505
:1016100009F04BC089B186FF26C0882394F482E08C
:1016200090E0A0E0B0E08093210290932202A0938A
:101630002302B0932402FB019183808380E090E039
:10164000089581E090E0A0E0B0E0809321029093C3
:101650002202A0932302B0932402FB019183808392
:1016600080E090E00895882394F483E090E0A0E087
:10167000B0E08093210290932202A0932302B093C2
:101680002402FB019183808380E090E00895109212
:101690002102109222021092230210922402FB01D6
:1016A0001182108280E090E00895029709F057C0FF
:1016B00089B1982F9071282F20728073803391F414
:1016C00082E090E0A0E0B0E08093250290932602B3
:1016D000A0932702B0932802FB019183808380E0CE
:1016E00090E008959923A1F0211126C081E090E0B7
:1016F000A0E0B0E08093250290932602A0932702F9
:10170000B0932802FB019183808380E090E00895EC
:10171000222391F083E090E0A0E0B0E080932502E6
:1017200090932602A0932702B0932802FB01918395
:10173000808380E090E00895811114C0109225020A
:10174000109226021092270210922802FB011182A9
:10175000108280E090E008958DE890E008958DE893
:1017600090E008958DE890E00895EF92FF920F9336
:101770001F93CF93DF93CDB7DEB72C970FB6F894B6
:10178000DEBF0FBECDBF7C0184E08B8781E08C87FC
:10179000F701E059FE4F008142E050E0BE01655F75
:1017A0007F4F802F0E9492039C01009709F062C036
:1017B00082E0898786E08A8742E050E0BE01675F69
:1017C0007F4F802F0E949203009709F057C019E0C5
:1017D0001F83188642E050E0BE01695F7F4F802F73
:1017E0000E949203009709F049C01F5F103181F7F2
:1017F00081E0E82280E8F822FF2054F481E0E81A32
:10180000F1088EEFE82AFF24FA948FEFE81AF80A1D
:10181000EA94EF2889F589E08D8385E58E8342E09F
:1018200050E0BE016B5F7F4F802F0E9492030097B4
:1018300029F58AE08B8385E58C8342E050E0BE0188
:101840006D5F7F4F802F0E9492030097A9F016C012
:1018500019831A8242E050E0BE016F5F7F4F802FF4
:101860000E949203009751F4185F143689F780E0C4
:1018700090E004C0932F02C014E4EACF2C960FB678
:10188000F894DEBF0FBECDBFDF91CF911F910F91B6
:10189000FF90EF9008950F931F93CF93DF9300D0A5
:1018A000CDB7DEB78C016AE270E00E94C41D9C01D6
:1018B000FC01E45EFE4F8081898381E08A83F90127
:1018C000EA5BFE4F808160597E4FFB01E80FF11DFE
:1018D00042E050E0BE016F5F7F4F80810E94920323
:1018E000009761F4012E000C220B330B009335029C
:1018F0001093360220933702309338020F900F90E6
:10190000DF91CF911F910F910895CF93DF9300D076
:10191000CDB7DEB76AE270E00E94C41DFC01E45E50
:10192000FE4F208129831A82FC01EA5BFE4F8081F1
:1019300060597E4FFB01E80FF11D42E050E0BE010F
:101940006F5F7F4F80810E949203009759F44FEFA1
:101950005FEFBA014093350250933602609337022D
:10196000709338020F900F90DF91CF910895CF932D
:10197000DF9300D0CDB7DEB781E089831A8242E0E1
:1019800050E0BE016F5F7F4F8EE90E9492030F907F
:101990000F90DF91CF910895EF92FF920F931F93D5
:1019A000CF93DF9300D01F92CDB7DEB7892B09F01C
:1019B00040C07B01198202E010E09E012E5F3F4F84
:1019C00041E050E0BE016F5F7F4F8EE90E948D04C1
:1019D000009789F52A81422F022E000C550B4427CF
:1019E000550F441F5527440F551F61E070E0FB0160
:1019F000E41BF50B2F7730E0322F22276B81260F67
:101A0000311D35952795E29FB001E39F700DF29F40
:101A1000700D11248B0120E030E000933902109307
:101A20003A0220933B0230933C02F70171836083BA
:101A300002C08BEA90E00F900F900F90DF91CF9152
:101A40001F910F91FF90EF900895EF92FF920F93E7
:101A50001F93CF93DF9300D01F92CDB7DEB7DC0189
:101A6000CB010196A11DB11D0297A105B10558F545
:101A70004E5F5F4F411580E4580740F57901598367
:101A80004A8301E010E09E012D5F3F4F42E050E0AD
:101A9000BE016F5F7F4F80EA0E948D040097C1F402
:101AA0002B81E1E5F2E04081518162817381762FE3
:101AB000652F542F4427422B4083518362837383C5
:101AC000F701208305C085EB90E002C086EB90E033
:101AD0000F900F900F90DF91CF911F910F91FF907A
:101AE000EF900895EF92FF920F931F93CF93DF93A0
:101AF00000D000D0CDB7DEB7DC01CB010196A11D2F
:101B0000B11D0297A105B10550F57A0119821A821B
:101B100002E010E09E012D5F3F4F42E050E0BE0129
:101B20006F5F7F4F80EA0E948D040097D1F42B8174
:101B300030E0322F22274C81240F311DA901032EC2
:101B4000000C660B770B40934D0250934E0260934E
:101B50004F0270935002F7013183208302C085EB5E
:101B600090E00F900F900F900F90DF91CF911F9109
:101B70000F91FF90EF9008953F924F925F926F9276
:101B80007F928F929F92AF92BF92CF92DF92EF920D
:101B9000FF920F931F93CF93DF93CDB7DEB7C2545D
:101BA000D1090FB6F894DEBF0FBECDBFDC01CB016B
:101BB0000196A11DB11D0297A105B10508F059C0FC
:101BC000C90101978115904408F056C079015A0166
:101BD000B90180E090E00E94961B20E030E040E8F0
:101BE0005CE30E94E41C0E94E61A0E94651B2B0124
:101BF000161617060CF043C0612C712C00E010E0A3
:101C0000812C912C6E0183E4C80ED11C62E0E60E9B
:101C1000F11C33243A9499828A82FE0133960E1580
:101C20001F0544F4D501A00FB11F8C9180830F5F75
:101C30001F4F01C030823196EC15FD0581F742E45B
:101C400050E0BE016F5F7F4F80EA0E9492030097D1
:101C5000C1F480E197E20197F1F780E4880E911CCE
:101C60006FEF661A760A64147504A9F680E090E0B6
:101C700008C085EB90E005C086EB90E002C080E0F4
:101C800090E0CE5BDF4F0FB6F894DEBF0FBECDBF46
:101C9000DF91CF911F910F91FF90EF90DF90CF9048
:101CA000BF90AF909F908F907F906F905F904F907C
:101CB0003F900895F894E0E6F0E0808188618083A9
:101CC00089E68083789480E090E008950FB6F894D8
:101CD000A8958091600088618093600010926000F8
:101CE0000FBE089544ED50E060E070E0409365025F
:101CF0005093660260936702709368024093690292
:101D000050936A0260936B0270936C0240936D0271
:101D100050936E0260936F0270937002092E000C54
:101D2000AA0BBB0B8093550290935602A0935702C7
:101D3000B093580281E0F0C8089584309105A8F569
:101D400064307105A8F59C01261B370BF90122F4BC
:101D5000EE27FF27E21BF30B329769F186179707EF
:101D600031F4FA011182108280E090E00895213070
:101D7000310521F02D3FFFEF3F0741F481E090E076
:101D8000FA019183808380E090E008952F3FFFEF78
:101D90003F0719F02330310589F48FEF9FEFFA01E7
:101DA0009183808380E090E0089589EC90E008952D
:101DB0008AEC90E008958BEC90E008958CEC90E034
:101DC0000895CF92DF92EF92FF920F931F93CF93DC
:101DD000DF937B01880F991F880F991FFC01EB5936
:101DE000FD4FC080D180C52FCC1FCC27CC1FD0E0A9
:101DF000842F952FB6010E94C41DFB01EC1BFD0B27
:101E0000CC9EA001CD9E500DDC9E500D1124EC0106
:101E1000C40FD51FC701B6010E94C41D80910001E7
:101E200090910101C817D9075CF5E61BF70B3197B4
:101E3000D901ED93FC9380910C0190910D01C8178D
:101E4000D90754F4ECE0F1E043E050E09291829144
:101E5000C817D9074CF002C044E050E04F5F5F4F15
:101E6000F8015183408303C04150510978F7D801EC
:101E70008D919C911816190674F506977CF526C06D
:101E8000E61BF70B3196D901ED93FC93809102018B
:101E900090910301C817D90754F4809100019091E3
:101EA0000101C817D9074CF080E090E002C081E042
:101EB00090E00297F80191838083D8018D919C91E5
:101EC0008E3FBFEF9B076CF0992374F4232B79F0BE
:101ED00080E090E00EC08DEC90E00BC08EEC90E0C6
:101EE00008C08DEC90E005C08EEC90E002C08FEC55
:101EF00090E0DF91CF911F910F91FF90EF90DF90D5
:101F0000CF9008952F923F924F925F926F927F925F
:101F10008F929F92AF92BF92CF92DF92EF92FF92F9
:101F20000F931F93CF93DF93CDB7DEB728970FB6EC
:101F3000F894DEBF0FBECDBF161617063CF0772310
:101F40000CF07DC0CC24CA94DC2C03C0CC24C394F8
:101F5000D12C79015E834D838B013C01BE016F5F03
:101F60007F4FFDDA009709F075C0ED81FE81118287
:101F70001082F701118210821C821B82180111232A
:101F800024F422243324201A310A121413040CF0EE
:101F900059C018861F820F2EF5E5AF2EF2E0BF2E36
:101FA000F02D882499248C189D0849805A8000E0DF
:101FB00010E0B601C3017DD9F701808191818C0DBC
:101FC0009D1D918380830F5F1F4FA801012E000C80
:101FD000660B770BF50180819181A281B381841713
:101FE0009507A607B7078CF1BE016F5F7F4FC3014E
:101FF000B6DA009779F5AE014D5F5F4FB201898186
:102000009A819BDE009731F58B819C818816990619
:10201000F9F0892B71F2ED81FE81808191818C0D27
:102020009D1D918380838F819885019698878F83EA
:102030008215930509F0B9CF80E090E00BC080E0F5
:1020400090E008C080E090E005C080ED90E002C024
:1020500081ED90E028960FB6F894DEBF0FBECDBF9D
:10206000DF91CF911F910F91FF90EF90DF90CF9074
:10207000BF90AF909F908F907F906F905F904F90A8
:102080003F902F9008952F923F924F925F926F92C0
:102090007F928F929F92AF92BF92CF92DF92EF92F8
:1020A000FF920F931F93CF93DF93CDB7DEB7609767
:1020B0000FB6F894DEBF0FBECDBF4C011B015C878D
:1020C0004B873E872D8777232CF48FEF9FEF9A87DE
:1020D000898704C0A1E0B0E0BA87A9875101332005
:1020E00024F4AA24BB24A218B3081A141B040CF06D
:1020F00049C000E010E0412C512C3201C12CD12C00
:1021000076019E828D82388A2F8615019E012D5F71
:102110003F4FAE014F5F5F4F69857A858D819E810C
:10212000F1DE009709F09CC06B817C81072E000CCA
:10213000880B990BC60ED71EE81EF91E0E94981B2D
:102140004B015C01C301B2010E94981B2B013C01B1
:10215000A5019401C501B4010E94E41C9B01AC01DE
:10216000C301B2010E94821A0E94651B2B013C012F
:102170000F5F1F4F0215130549F68D809E802F8437
:10218000388806C0412C512C3201C12CD12C76014B
:10219000F401EE0FFF1FEE0FFF1FEB59FD4F6081A3
:1021A0007181828193810E94981B4B015C01C70160
:1021B000B6010E94981B9B01AC01C501B4010E94AD
:1021C000FD1A4B015C01B101032C000C880B990B2B
:1021D0000E94981B9B01AC01C501B4010E94E41C44
:1021E0006D837E838F839887EB85FC856083718305
:1021F00082839383DD2004F49601DD2024F42227DA
:1022000033272C193D09032E000C440B550BC30139
:10221000B2010E94F91D49015A019101330C440B8E
:10222000550BC701B6010E94F91DC501B401621B1F
:10223000730B840B950B0E94981B0E944B1D9B01F6
:10224000AC016D817E818F8198850E94E41CAD85F3
:10225000BE856D937D938D939C93139780E090E062
:1022600060960FB6F894DEBF0FBECDBFDF91CF9161
:102270001F910F91FF90EF90DF90CF90BF90AF90A4
:102280009F908F907F906F905F904F903F902F9096
:102290000895EF92FF920F931F93CF93DF93CDB7E3
:1022A000DEB728970FB6F894DEBF0FBECDBF7C0116
:1022B0008E010D5F1F4F9E012F5F3F4F82DD9C01FE
:1022C0000097D9F569817A819E01295F3F4FAE0160
:1022D0004B5F5F4FC70116DE009799F58B819C819C
:1022E00018161906A4F49E01295F3F4FAE014B5FFB
:1022F0005F4F61E070E0C70105DE009711F56B816B
:102300007C8161507109C7010E9459091AC0992343
:10231000B4F49E01295F3F4FAE014B5F5F4F6FEFFB
:102320007FEFC701EFDD009761F46B817C816F5F08
:102330007F4FC7010E94590904C0932F02C082ED4C
:1023400090E028960FB6F894DEBF0FBECDBFDF91A8
:10235000CF911F910F91FF90EF9008952F923F9290
:102360004F925F926F927F928F929F92AF92BF92A5
:10237000CF92DF92EF92FF920F931F93CF93DF9351
:10238000CDB7DEB728970FB6F894DEBF0FBECDBF2E
:1023900088EE93E0A0E0B0E08093890290938A02F7
:1023A000A0938B02B0938C0288E99FE1A0E0B0E09B
:1023B00080938D0290938E02A0938F02B09390022F
:1023C0000E944A08009709F057C10091010210913C
:1023D000020220910302309104028FEF9FE3A0E0FC
:1023E000B0E0BC01CD01601B710B820B930B0E940E
:1023F000981B6B017C016091FD017091FE01809141
:10240000FF01909100020E94981B9B01AC01C70143
:10241000B6010E94FD1A0E94D31B0E94651B4B014E
:10242000161617060CF0B4C0C12CD12C76010F2E55
:1024300022242A94FFE33F2EF02D0F2EF8ECAF2E2E
:10244000B12CF02D05E313E00F2E44244A94FFE352
:102450005F2E612C712CF02DADEFB1E02D913C91F0
:102460002C9DC0012D9D900D3C9D900D1124F101DE
:10247000E81BF90BCF010E942408009709F0FEC069
:10248000ADEFB1E02D913C912C9DC0012D9D900DA3
:102490003C9D900D1124F101E81BF90BCF010E9426
:1024A0009907009709F0ECC0A9E8B2E06D917D9121
:1024B0008D919C910E94981B6D837E838F8398875A
:1024C00020E030E04AEF54E40E94E41C69837A8300
:1024D0008B839C8320E030E040E85FE30E94F91AA0
:1024E00088234CF120E03FEF4FE757E469817A8180
:1024F0008B819C810E949B1C1816B4F420E030E074
:1025000040E251E46D817E818F8198850E94E41CB8
:102510000E946A1B6115710599F0C5010197F1F7D9
:1025200061507109D1F70CC069817A818B819C81DE
:102530000E946A1B02C061E070E0CB010197F1F7D5
:10254000E1E9F2E0ADEFB1E06D917D918D919C916B
:10255000A70196010E94B51DA3019201261B370B0E
:10256000480B590BDA01C901AA27BB27AA60BA6038
:1025700081939193A193B193E017F10719F73FEF7E
:10258000C31AD30AE30AF30AC814D9040CF464CFBB
:1025900080910102909102020E942408009709F0A4
:1025A00071C080910102909102020E9499070097E8
:1025B00009F06AC06091890270918A0280918B0251
:1025C00090918C020E94981B4B015C0120E030E04E
:1025D0004AEF54E40E94E41C6B017C0120E030E0EF
:1025E00040E85FE30E94F91A88232CF120E03FEFD6
:1025F0004FE757E4C701B6010E949B1C1816B4F4BC
:1026000020E030E040E251E4C501B4010E94E41C46
:102610000E946A1B6115710599F028EC30E0C90130
:102620000197F1F761507109D1F70AC0C701B601EE
:102630000E946A1B02C061E070E0CB010197F1F7D4
:10264000E1E9F2E025E333E041E052E0BF01FA01C5
:1026500080819181A281B381AA27BB27AA60BA6039
:10266000FB0181939193A193B193BF01E217F3070B
:1026700071F720E090E009C0282F07C0282F05C07F
:10268000282F03C0282F01C0282F822F28960FB68D
:10269000F894DEBF0FBECDBFDF91CF911F910F9198
:1026A000FF90EF90DF90CF90BF90AF909F908F9072
:1026B0007F906F905F904F903F902F9008958F92F2
:1026C0009F92AF92BF92CF92DF92EF92FF920F93C1
:1026D0001F93CF93DF938C01EC01EF9660918D02F5
:1026E00070918E022091010230910202FE01EE0FE4
:1026F000FF1FEE0FFF1FEB56FE4F80819181A281DD
:10270000B381AC01F901E60FF71FE817F907B8F438
:10271000AE01440F551F440F551F4B565E4F88277F
:1027200099276F01E12CF12CC82AD92AEA2AFB2A21
:10273000DA01CD92DD92ED92FC921397AF01261B48
:10274000370B42175307C8F4FE01EE0FFF1FEE0FC1
:10275000FF1FEB56FE4F80819181A281B3818827B4
:102760009927A90160E070E0842B952BA62BB72B4D
:1027700080839183A283B383A901CA01A0E0B0E062
:10278000C090F101D090F201E090F301F090F401DB
:102790008C159D05AE05BF0509F448C0CA010E940D
:1027A0009907009709F0B2C06091890270918A027E
:1027B00080918B0290918C02BBD74B015C0120E091
:1027C00030E04AEF54E40E94E41C6B017C0120E0FD
:1027D00030E040E85FE30DD788231CF120E03FEFB5
:1027E0004FE757E4C701B6010E949B1C1816ACF4D2
:1027F00020E030E040E251E4C501B4010E94E41C55
:1028000069D76115710591F028EC30E0C901019795
:10281000F1F761507109D1F709C0C701B6015AD764
:1028200002C061E070E0CB010197F1F7C80133D835
:10283000009709F06DC0FE01EE0FFF1FEE0FFF1FA6
:10284000EB56FE4F80819181A281B3816B2F772758
:10285000882799276DD74B015C0120E030E04AEFD3
:1028600054E40E94E41C6B017C0120E030E040E86D
:102870005FE3BFD688231CF120E03FEF4FE757E42A
:10288000C701B6010E949B1C1816ACF420E030E092
:1028900040E251E4C501B4010E94E41C1BD761155C
:1028A000710591F028EC30E0C9010197F1F7615012
:1028B0007109D1F709C0C701B6010CD702C061E0A8
:1028C00070E0CB010197F1F7C8011FD8009711F50F
:1028D000CC0FDD1FCC0FDD1FCB56DE4F4881598159
:1028E0006A817B818A019B01002711273327322FC0
:1028F000212F102F00277727402B512B622B732B72
:10290000488359836A837B83282F05C0282F03C0FF
:10291000282F01C0282F822FDF91CF911F910F9177
:10292000FF90EF90DF90CF90BF90AF909F908F90EF
:1029300008954F925F926F927F928F929F92AF9283
:10294000BF92CF92DF92EF92FF920F931F93CF939C
:10295000DF93CDB7DEB72C970FB6F894DEBF0FBE6E
:10296000CDBF7C01CDB6DEB6E0E9F1E02081822F5B
:1029700090E031814280512C612C712C3201552420
:102980004424732A3381532A3481432A009751F413
:1029900020E735EE42E15AEA60E070E0C7010E94AC
:1029A000F90635C586399105A0F4880F991F880F5F
:1029B000991FFC01EB56FE4F408251826282738266
:1029C000622F70E020E030E0A901C7010E94F90603
:1029D0001EC58639910581F4F201EE0FFF1FEE0F3F
:1029E000FF1FEB56FE4F2081318142815381B2019E
:1029F000C7010E94F9060BC58739910571F4C3011F
:102A0000B2010E9483019C01990F440B550B67E9A9
:102A100070E0C7010E94F906FAC48839910571F483
:102A2000C301B2010E9467029C01990F440B550B30
:102A300068E970E0C7010E94F906E9C48939910587
:102A400071F4C301B2010E9499029C01990F440BD9
:102A5000550B69E970E0C7010E94F906D8C48A39AC
:102A6000910571F4C301B2010E9461039C01990FA9
:102A7000440B550B6AE970E0C7010E94F906C7C410
:102A80008B39910571F4C301B2010E94B1059C011B
:102A9000990F440B550B6BE970E0C7010E94F906D2
:102AA000B6C48C39910571F4C301B2010E942F069E
:102AB0009C01990F440B550B6CE970E0C7010E9413
:102AC000F906A5C4803A910561F40E944F079C0164
:102AD000990F440B550B60EA70E0C7010E94F9069C
:102AE00096C4813A910561F40E944A089C01990FAD
:102AF000440B550B61EA70E0C7010E94F90687C4D8
:102B0000823A910561F40E94BF079C01990F440B22
:102B1000550B62EA70E0C7010E94F90678C4833A57
:102B2000910591F481E045284628472809F480E082
:102B30000E948C079C01990F440B550B63EA70E0CF
:102B4000C7010E94F90663C4843A910561F40E94AA
:102B500093079C01990F440B550B64EA70E0C70181
:102B60000E94F90654C4853A910569F4C2010E9495
:102B700099079C01990F440B550B65EA70E0C7015A
:102B80000E94F90644C4863A910569F4C2010E9484
:102B900024089C01990F440B550B66EA70E0C701AD
:102BA0000E94F90634C4873A910599F425B181E071
:102BB00090E002C0880F991F4A94E2F7822B85B9F2
:102BC00020E030E0A90167EA70E0C7010E94F90641
:102BD0001EC4883A9105A1F425B181E090E002C0BD
:102BE000880F991F4A94E2F78095822385B920E0E7
:102BF00030E0A90168EA70E0C7010E94F90607C445
:102C0000893A9105A1F428B181E090E002C0880FD3
:102C1000991F4A94E2F78095822388B920E030E03A
:102C2000A90169EA70E0C7010E94F906F0C38A3A77
:102C3000910599F428B181E090E002C0880F991FB6
:102C40004A94E2F7822B88B920E030E0A9016AEAD1
:102C500070E0C7010E94F906DAC38B3A9105A9F426
:102C6000BE016F5F7F4FC2010E9459089C01990FFE
:102C7000440B550B6BEA70E0C7010E94F906009700
:102C800009F0C5C380E090E0C2C38C3A910569F4B5
:102C9000C2010E947808282F30E040E050E06CEA42
:102CA00070E0C7010E94F906B2C38F3A910561F442
:102CB0000E9491089C01990F440B550B6FEA70E03C
:102CC000C7010E94F906A3C3803B910571F4C301BB
:102CD000B2010E949C089C01990F440B550B60EBBC
:102CE00070E0C7010E94F90692C3813B910561F42F
:102CF0000E949708282F30E040E050E061EB70E040
:102D0000C7010E94F90683C3833B910561F40E94C9
:102D1000DA089C01990F440B550B63EB70E0C70177
:102D20000E94F90674C3843B910569F4C2010E94B4
:102D3000720E9C01990F440B550B64EB70E0C701B8
:102D40000E94F90664C3853B910579F4B20180E0E5
:102D500090E00E9459099C01990F440B550B65EBBB
:102D600070E0C7010E94F90652C3863B9105C9F481
:102D70009E012F5F3F4FAE014B5F5F4FB20180E07E
:102D800090E0C0D89C01990F440B550B66EB70E0A6
:102D9000C7010E94F906009709F039C380E090E06E
:102DA00036C3873B910591F46091590270915A02A4
:102DB000A20180E090E06DDA9C01990F440B550B65
:102DC00067EB70E0C7010E94F90621C3883B9105BB
:102DD00049F420E030E0A90168EB70E0C7010E94EF
:102DE000F90615C3893B910509F040C09E012F5F8C
:102DF0003F4FAE014B5F5F4FB20180E090E043D99F
:102E00005C01892B21F520E034E244E759E46D812F
:102E10007E818F819885D8D558D460937102709344
:102E20007202809373029093740220E034E244E7CC
:102E300059E469817A818B819C81C6D546D460939F
:102E40007D0270937E0280937F02909380029501B1
:102E5000BB0C440B550B69EB70E0C7010E94F906EF
:102E6000009709F0D4C280E090E0D1C28A3B91057E
:102E7000B1F4BE016F5F7F4F80E090E00E94AF0A27
:102E80009C01990F440B550B6AEB70E0C7010E943F
:102E9000F906009709F0BBC280E090E0B8C28F3B12
:102EA000910579F4B20181E090E00E9459099C01FA
:102EB000990F440B550B6FEB70E0C7010E94F906A8
:102EC000A6C2803C9105C9F49E012F5F3F4FAE0121
:102ED0004B5F5F4FB20181E090E014D89C01990FE5
:102EE000440B550B60EC70E0C7010E94F906009797
:102EF00009F08DC280E090E08AC2813C910591F496
:102F000060915D0270915E02A20181E090E0C1D902
:102F10009C01990F440B550B61EC70E0C7010E94B6
:102F2000F90675C2823C910549F420E030E0A90120
:102F300062EC70E0C7010E94F90669C2833C91050A
:102F400009F040C09E012F5F3F4FAE014B5F5F4FC6
:102F5000B20181E090E097D85C01892B21F520E057
:102F600034E244E759E46D817E818F8198852CD5C8
:102F7000ACD360937502709376028093770290933E
:102F8000780220E034E244E759E469817A818B8158
:102F90009C811AD59AD360938102709382028093A8
:102FA0008302909384029501BB0C440B550B63EC98
:102FB00070E0C7010E94F906009709F028C280E07E
:102FC00090E025C2843C9105B1F4BE016F5F7F4F54
:102FD00081E090E00E94AF0A9C01990F440B550BD1
:102FE00064EC70E0C7010E94F906009709F00FC277
:102FF00080E090E00CC2893C910579F4B20182E056
:1030000090E00E9459099C01990F440B550B69EC03
:1030100070E0C7010E94F906FAC18A3C9105D1F41B
:103020009E012F5F3F4FAE014B5F5F4FB20182E0C9
:1030300090E00E94820F9C01990F440B550B6AECA3
:1030400070E0C7010E94F906009709F0E0C180E036
:1030500090E0DDC18B3C910591F46091610270912B
:103060006202A20182E090E014D99C01990F440B06
:10307000550B6BEC70E0C7010E94F906C8C18C3C8F
:10308000910549F420E030E0A9016CEC70E0C70143
:103090000E94F906BCC18D3C910509F041C09E011A
:1030A0002F5F3F4FAE014B5F5F4FB20182E090E078
:1030B0000E9443105C01892B21F520E034E244E7B3
:1030C00059E46D817E818F8198857ED4FED2609394
:1030D000790270937A0280937B0290937C0220E0C5
:1030E00034E244E759E469817A818B819C816CD414
:1030F000ECD260938502709386028093870290934E
:1031000088029501BB0C440B550B6DEC70E0C701B8
:103110000E94F906009709F07AC180E090E077C13B
:103120008E3C9105B1F4BE016F5F7F4F82E090E06D
:103130000E94AF0A9C01990F440B550B6EEC70E096
:10314000C7010E94F906009709F061C180E090E094
:103150005EC1823D910569F4C2010E94B50B9C01DC
:10316000990F440B550B62ED70E0C7010E94F90600
:103170004EC1833D910569F4C2010E944B0C9C0134
:10318000990F440B550B63ED70E0C7010E94F906DF
:103190003EC1843D910569F4C2010E94850C9C01E9
:1031A000990F440B550B64ED70E0C7010E94F906BE
:1031B0002EC1853D910559F4D1D89C01990F440B3E
:1031C000550B65ED70E0C7010E94F90620C1863DF0
:1031D000910561F4C20173DA9C01990F440B550B00
:1031E00066ED70E0C7010E94F90611C18C3D9105A2
:1031F00061F40E94B70C9C01990F440B550B6CEDC8
:1032000070E0C7010E94F90602C18D3D9105A9F445
:10321000BE016F5F7F4FC2010E94CC0C9C01990FD1
:10322000440B550B6DED70E0C7010E94F906009745
:1032300009F0EDC080E090E0EAC08E3D910551F4C8
:103240002BEA30E040E050E06EED70E0C7010E94F4
:10325000F906DDC0863E910561F40E945A0E9C017C
:10326000990F440B550B66EE70E0C7010E94F906FA
:10327000CEC0873E910559F40E94660E20E030E0F2
:10328000A90167EE70E0C7010E94F906C0C0803F47
:10329000910569F4C2010E949D009C01990F440BA5
:1032A000550B60EF70E0C7010E94F906B0C0813F86
:1032B000910569F4C2010E94BA009C01990F440B68
:1032C000550B61EF70E0C7010E94F906A0C0853F71
:1032D000910509F055C08DB69EB6C301BB2797FD79
:1032E000B095AB2F89879A87AB87BC87C2010296BE
:1032F000ADB7BEB7A81BB90B0FB6F894BEBF0FBED3
:10330000ADBFEDB7FEB731965F0111965C92418279
:1033100020E030E0A90165EF70E0C7010E94F906E6
:10332000009741F500E117E220E030E0A201B5018D
:103330006E5F7F4FC7010E946906009741F49201BA
:10334000A50169857A858B859C850E94BC0D9C01B1
:10335000990F440B550B65EF70E0C7010E94F90609
:10336000009741F40FB6F8949EBE0FBE8DBE80E06C
:1033700090E04DC00FB6F8949EBE0FBE8DBE47C004
:10338000863F9105A9F4AE014F5F5F4FC301B201C3
:103390000E94720D9C01990F440B550B66EF70E073
:1033A000C7010E94F906009791F580E090E02FC0D8
:1033B000873F9105C9F4B301992777FD9095892F2F
:1033C0009E012F5F3F4FA2010E94250D9C01990F86
:1033D000440B550B67EF70E0C7010E94F906009798
:1033E000B1F480E090E013C08F3F910541F4A30158
:1033F00092016FEF70E0C7010E94F90608C030E04B
:1034000040E050E06EEF70E0C7010E94F9060FB691
:10341000F894DEBE0FBECDBE2C960FB6F894DEBF7C
:103420000FBECDBFDF91CF911F910F91FF90EF9015
:10343000DF90CF90BF90AF909F908F907F906F90D4
:103440005F904F9008951F920F920FB60F92112424
:103450000BB60F922F933F934F935F936F937F938E
:103460008F939F93AF93BF93EF93FF9380E090E090
:103470000E949D00FF91EF91BF91AF919F918F911D
:103480007F916F915F914F913F912F910F900BBE64
:103490000F900FBE0F901F90189580E090E00E9453
:1034A000BA0060E875E280E090E00E94830160E885
:1034B00075E280E090E00E94670260E079E08DE3D1
:1034C00090E00E94990260E47DE083E090E00E9439
:1034D000610368EE73E080E090E00E942F060E9496
:1034E0004F070E94DA080E9491080E945A06EC01D8
:1034F0000097D9F30E94E706892BB9F7CE0119DAB4
:10350000F4CF5058BB27AA270ED0C4C1B5D130F094
:10351000BAD120F031F49F3F11F41EF4AAC10EF489
:10352000E095E7FB77C1E92FC6D180F3BA176207B0
:1035300073078407950718F071F49EF5F5C10EF432
:10354000E0950B2EBA2FA02D0B01B90190010C01B3
:10355000CA01A0011124FF27591B99F0593F50F4CB
:10356000503E68F11A16F040A22F232F342F442723
:10357000585FF3CF469537952795A795F04053951B
:10358000C9F77EF41F16BA0B620B730B840BBAF0EB
:103590009150A1F0FF0FBB1F661F771F881FC2F756
:1035A0000EC0BA0F621F731F841F48F4879577956A
:1035B0006795B795F7959E3F08F0B3CF9395880F21
:1035C00008F09927EE0F97958795089596D180F08A
:1035D0009F3740F491110EF4A8C160E070E080E8DC
:1035E0009FE3089526F01B16611D711D811D18C1F2
:1035F00032C1ECD008F481E008950CD04BC143D126
:1036000040F03AD130F021F45F3F19F003C151117D
:103610008CC12FC150D198F39923C9F35523B1F32D
:10362000951B550BBB27AA2762177307840738F031
:103630009F5F5F4F220F331F441FAA1FA9F333D090
:103640000E2E3AF0E0E830D091505040E695001C44
:10365000CAF729D0FE2F27D0660F771F881FBB1F00
:10366000261737074807AB07B0E809F0BB0B802DDA
:10367000BF01FF2793585F4F2AF09E3F510568F026
:10368000C9C053C15F3FECF3983EDCF38695779554
:103690006795B795F7959F5FC9F7880F911D969528
:1036A000879597F90895E1E0660F771F881FBB1F84
:1036B000621773078407BA0720F0621B730B840B31
:1036C000BA0BEE1F88F7E095089504D06894B11105
:1036D0002CC10895F8D088F09F5790F0B92F992702
:1036E000B751A0F0D1F0660F771F881F991F1AF00D
:1036F000BA95C9F712C0B13081F016D1B1E0089582
:1037000013C1672F782F8827B85F39F0B93FCCF302
:10371000869577956795B395D9F73EF49095809502
:10372000709561957F4F8F4F9F4F0895E89409C022
:1037300097FB3EF490958095709561957F4F8F4FE4
:103740009F4F9923A9F0F92F96E9BB279395F695FA
:10375000879577956795B795F111F8CFFAF4BB0F78
:1037600011F460FF1BC06F5F7F4F8F4F9F4F16C0DC
:10377000882311F096E911C0772321F09EE8872F66
:10378000762F05C0662371F096E8862F70E060E022
:103790002AF09A95660F771F881FDAF7880F96959B
:1037A000879597F90895A9D080F09F3740F491113B
:1037B0000EF0BBC060E070E080E89FEB089526F457
:1037C0001B16611D711D811D2BC045C0990F00087E
:1037D000550FAA0BE0E8FEEF16161706E807F907E3
:1037E000C0F012161306E407F50798F0621B730B7E
:1037F000840B950B39F40A2661F0232B242B252BFF
:1038000021F408950A2609F4A140A6958FEF811DA1
:10381000811D089597F99F6780E870E060E0089542
:10382000882371F4772321F09850872B762F07C0D7
:10383000662311F499270DC09051862B70E060E04B
:103840002AF09A95660F771F881FDAF7880F9695EA
:10385000879597F908959F3F31F0915020F487950F
:1038600077956795B795880F911D9695879597F9E8
:1038700008959FEF80EC089500240A941616170609
:1038800018060906089500240A9412161306140651
:1038900005060895092E0394000C11F4882352F0B4
:1038A000BB0F40F4BF2B11F460FF04C06F5F7F4F6C
:1038B0008F4F9F4F089557FD9058440F551F59F053
:1038C0005F3F71F04795880F97FB991F61F09F3F0D
:1038D00079F087950895121613061406551FF2CF36
:1038E0004695F1DF08C0161617061806991FF1CF86
:1038F00086957105610508940895E5DFA0F0BEE79F
:10390000B91788F4BB279F3860F41616B11D672FCE
:10391000782F8827985FF7CF869577956795B11DA3
:1039200093959639C8F30895E894BB2766277727BF
:10393000CB0197F908954ADF08F48FEF08950EF050
:103940008ACF97CF689466CFBEDFC8F39923D1F3AF
:10395000C6F3DF93CF931F930F93FF92C92FDD27F9
:1039600088232AF02197660F771F881FDAF720E057
:1039700030E040E85FEB9FE3883920F0803E30F094
:1039800021968F77BFDDECE8F0E003C0BBDDE9EB0B
:10399000F0E0C6D08B01BE01EC01FB2E6F57710920
:1039A0007595771F880B990BC3DE28E132E741E359
:1039B0005FE316D0AF2D9801AE01FF900F911F91DC
:1039C000CF91DF91B0DD66CF0BD064CF55DF28F00B
:1039D0005ADF18F0952309F01DCF4BCF1124A5CF46
:1039E0006ADFA0F3959FD1F3950F50E0551F629FBA
:1039F000F001729FBB27F00DB11D639FAA27F00D48
:103A0000B11DAA1F649F6627B00DA11D661F829F6E
:103A10002227B00DA11D621F739FB00DA11D621F53
:103A2000839FA00D611D221F749F3327A00D611D70
:103A3000231F849F600D211D822F762F6A2F112452
:103A40009F5750408AF0E1F088234AF0EE0FFF1FA5
:103A5000BB1F661F771F881F91505040A9F79E3FDC
:103A6000510570F0D7CE61CF5F3FECF3983EDCF3A9
:103A7000869577956795B795F795E7959F5FC1F719
:103A8000FE2B880F911D9695879597F9089511F44F
:103A90000EF4EFCEE0CE17DFD0F39923D9F3CEF3B7
:103AA0009F57550B87FF35D00024A0E640EA9001D0
:103AB00080585695979528F4805C660F771F881F6D
:103AC00020F026173707480730F4621B730B840B6E
:103AD000202931294A2BA6951794079420253125B2
:103AE0004A2758F7660F771F881F20F026173707D9
:103AF000480730F4620B730B840B200D311D411D00
:103B0000A09581F7B901842F9158880F96958795D4
:103B1000089591505040660F771F881FD2F708957F
:103B2000DF93CF931F930F93FF92EF92DF927B016E
:103B30008C01689405C0DA2EEF0152DFFE01E89493
:103B4000A5912591359145915591AEF3EF01EBDCAF
:103B5000FE019701A801DA9479F7DF90EF90FF90CA
:103B60000F911F91CF91DF910895DB018F939F9368
:103B70005CD0BF91AF91A29F800D911DA39F900D2E
:103B8000B29F900D1124089597FB072E16F4009410
:103B900006D077FD08D053D007FC05D03EF49095B1
:103BA00081959F4F0895709561957F4F0895A1E28B
:103BB0001A2EAA1BBB1BFD010DC0AA1FBB1FEE1FA7
:103BC000FF1FA217B307E407F50720F0A21BB30BF2
:103BD000E40BF50B661F771F881F991F1A9469F76E
:103BE00060957095809590959B01AC01BD01CF01CA
:103BF0000895052E97FB16F400940FD057FD05D0BD
:103C0000D6DF07FC02D046F408C0509540953095A9
:103C100021953F4F4F4F5F4F089590958095709538
:103C200061957F4F8F4F9F4F08951DD0A59F900D99
:103C3000B49F900DA49F800D911D11240895AA1B7F
:103C4000BB1B51E107C0AA1FBB1FA617B70710F087
:103C5000A61BB70B881F991F5A95A9F780959095B9
:103C6000BC01CD010895A29FB001B39FC001A39FE5
:103C7000700D811D1124911DB29F700D811D1124A5
:103C8000911D0895DC01CB01FC01F999FECF06C01E
:103C9000F2BDE1BDF89A319600B40D92415050400A
:103CA000B8F70895DC01A40FB51F4150504040F013
:103CB000CB01840F951F2E9105D041505040D8F76D
:103CC0000895262FF999FECF92BD81BDF89A0197EC
:103CD00000B4021639F01FBA20BD0FB6F894FA9A54
:0A3CE000F99A0FBE0895F894FFCF83
:103CEA008B00AA0000001D00390055007100000079
:103CFA0000020000000093000000000038393B3C3D
:103D0A003E3F2C292A2E2F303233373A3D282D2B8D
:103D1A00313A273E242E313439383C3B263D3F2563
:103D2A002D2C302F33320101010101010000000066
:103D3A000000000001010100000000000000000175
:103D4A000101000000000000000001010101010161
:103D5A009884010000000300020001000000030033
:103D6A0002000500040007000600120013001300F9
:00000001FF
